:0200000460009A
:10000000FFFFFFFFFFFFFFFFFFFFFFFFFFFFFFFF00
:10001000FFFFFFFFFFFFFFFFFFFFFFFFFFFFFFFFF0
:10002000FFFFFFFFFFFFFFFFFFFFFFFFFFFFFFFFE0
:10003000FFFFFFFFFFFFFFFFFFFFFFFFFFFFFFFFD0
:100400004643464200040156000000000103030079
:1004100000000000000000000000000000000000DC
:1004200000000000000000000000000000000000CC
:1004300000000000000000000000000000000000BC
:1004400000000000010407000000000000000000A0
:10045000000000010000000000000000000000009B
:10046000000000000000000000000000000000008C
:10047000000000000000000000000000000000007C
:10048000EB04180A063204260000000000000000F9
:10049000050404240000000000000000000000002B
:1004A000000000000000000000000000000000004C
:1004B0000604000000000000000000000000000032
:1004C000000000000000000000000000000000002C
:1004D00020041808000000000000000000000000D8
:1004E000000000000000000000000000000000000C
:1004F00000000000000000000000000000000000FC
:10050000D8041808000000000000000000000000EF
:100510000204180804200000000000000000000091
:1005200000000000000000000000000000000000CB
:100530006004000000000000000000000000000057
:1005400000000000000000000000000000000000AB
:10055000000000000000000000000000000000009B
:10056000000000000000000000000000000000008B
:10057000000000000000000000000000000000007B
:10058000000000000000000000000000000000006B
:10059000000000000000000000000000000000005B
:1005A000000000000000000000000000000000004B
:1005B000000000000000000000000000000000003B
:1005C0000001000000100000010000000000000019
:1005D000000001000000000000000000000000001A
:1005E000000000000000000000000000000000000B
:1005F00000000000000000000000000000000000FB
:10060000FFFFFFFFFFFFFFFFFFFFFFFFFFFFFFFFFA
:10061000FFFFFFFFFFFFFFFFFFFFFFFFFFFFFFFFEA
:10100000D10020410020006000000000000000002E
:1010100020100060001000600000000000000000D0
:10102000000000600000000100000000FFFFFFFF63
:10103000FFFFFFFFFFFFFFFFFFFFFFFFFFFFFFFFC0
:10104000FFFFFFFFFFFFFFFFFFFFFFFFFFFFFFFFB0
:10105000FFFFFFFFFFFFFFFFFFFFFFFFFFFFFFFFA0
:10106000FFFFFFFFFFFFFFFFFFFFFFFFFFFFFFFF90
:1020000000800020D1210060592200609D9E006068
:102010005D2200605F22006061220060000000001D
:1020200000000000000000000000000061230060CC
:10203000652200600000000091230060A13800606C
:10204000D1980060D9980060E1980060E99800603C
:10205000F1980060F99800600199006009990060AA
:102060001199006019990060219900602999006018
:102070003199006039990060419900604999006088
:1020800051990060599900606199006069990060F8
:102090007199006079990060819900608999006068
:1020A0009199006099990060A1990060A9990060D8
:1020B000B1990060B9990060C1990060C999006048
:1020C000D1990060D9990060E1990060E9990060B8
:1020D000F1990060F9990060019A0060099A006026
:1020E000119A0060199A0060219A0060299A006094
:1020F000319A0060399A0060419A0060499A006004
:10210000519A0060599A0060619A0060699A006073
:10211000719A0060799A0060819A0060899A0060E3
:10212000919A0060999A0060A19A0060A99A006053
:10213000B19A0060B99A0060C19A0060C99A0060C3
:10214000D19A0060D99A0060E19A0060E99A006033
:10215000F19A0060F99A0060019B0060099B0060A1
:10216000119B0060199B0060219B0060299B00600F
:10217000319B0060399B0060419B0060499B00607F
:1021800064C40060000000202400000064C40060FB
:10219000000000000000000064C400600000202077
:1021A0000000000064C400600080202000000000E7
:1021B00024000020EC2A00000000000000000000C5
:1021C000000020200000000000802020000000000F
:1021D00072B6114B83F3088805F020FE0F4B07E021
:1021E00003F10C049A685968186800F01DF823463A
:1021F0000B4A9342F4D306E01C46596854F8080B86
:1022000000F021F82346074A9342F5D306F0AAFED0
:1022100062B600F0F1FBFEE7008000208021006044
:10222000B0210060D0210060002393420AD210B494
:1022300050F8044B41F8044B04339342F8D35DF853
:10224000044B70477047002303E0002240F8042B42
:1022500004338B42F9D37047FEE7FEE7FEE7FEE763
:10226000FEE7FEE7FEE7FEE7FEE7FEE7FFFFFFFF14
:10227000FFFFFFFFFFFFFFFFFFFFFFFFFFFFFFFF6E
:1022800030B490F800F020F007016FF0000C10F06F
:10229000070491F820F040F048804FF000046FF000
:1022A0000700D1E9002391F840F000F1080082FA1C
:1022B0004CF2A4FA8CF283FA4CF3A2FA8CF34BBBE7
:1022C000D1E9022382FA4CF200F10800A4FA8CF260
:1022D00083FA4CF3A2FA8CF3E3B9D1E9042382FA2E
:1022E0004CF200F10800A4FA8CF283FA4CF3A2FA43
:1022F0008CF37BB9D1E9062301F1200182FA4CF27B
:1023000000F10800A4FA8CF283FA4CF3A2FA8CF3E1
:10231000002BC6D0002A04BF04301A4612BAB2FA03
:1023200082F200EBD20030BC7047D1E9002304F008
:102330000305C4F100004FEAC50514F0040F91F83D
:1023400040F00CFA05F562EA05021CBF63EA0503DA
:1023500062464FF00004AAE7FFFFFFFFFFFFFFFF09
:10236000074B19680868B0E8F04F80F30988BFF39D
:102370006F8F4FF0000080F311887047AFF300803B
:10238000DC28002000BF00BFFFFFFFFFFFFFFFFFB3
:10239000EFF30980BFF36F8F154B1A681EF0100F13
:1023A00008BF20ED108A20E9F04F10602DE90900E8
:1023B0004FF0200080F31188BFF34F8FBFF36F8F72
:1023C00002F04AFC4FF0000080F3118809BC196844
:1023D0000868B0E8F04F1EF0100F08BFB0EC108A8C
:1023E00080F30988BFF36F8F704700BFAFF30080A1
:1023F000DC28002000BF00BF80B586B002AFF860C7
:10240000B9607A603B607B680093BB68FA683968A2
:10241000044806F0CDFEBA68F968386806F088FE10
:1024200000BEFDE78CB7006080B584B000AF786077
:1024300043F22153FB81012279680A4809F013F81D
:102440000346FB81FB89002B02D00123FB8103E0C3
:10245000054B1B780023FB81FB8918461037BD46CE
:1024600080BD00BF440000200C2B002080B584B04C
:1024700000AF786039607B68002BFCD03B68002B94
:1024800001D1002313E00C4B1B68002B01D100236A
:102490000DE03A687968094808F0D5FF0346FB81EA
:1024A000FB89002B01D13B6801E04FF0FF33184658
:1024B0001037BD4680BD00BF48000020400000200E
:1024C00080B584B000AF78607B68002BFCD00C4BEB
:1024D0001B68002B02D14FF0FF330CE07868FFF748
:1024E000A3FF0346002B02D10123FB6002E04FF063
:1024F000FF33FB60FB6818461037BD4680BD00BF48
:102500004800002080B58CB000AFB9607B60034606
:10251000FB731346BB730023FB8507F124030822DA
:102520000021184606F0CCFC7B687B61BB68BB6170
:10253000FB7BFB61022387F82030BB7B87F82430CC
:1025400048F64173FB84BB7B012B03D143F221533B
:10255000FB851EE0BB7B022B03D143F22153FB859D
:1025600017E0BB7B032B03D107F11403BB6210E020
:10257000BB7B042B03D143F22153FB8509E0BB7BDA
:10258000092B03D143F22153FB8502E043F221538F
:10259000FB85FB8D43F22152934230D0242200214F
:1025A000194806F08DFC184B184A1A60164B1B6828
:1025B00007F124021146184608F0BDFE0346FB85CC
:1025C000FB8D002BFCD1124B1B780F4B1B68114964
:1025D000184608F0E0FE0346FB85FB8D002BFCD17E
:1025E000094B1B680C49184608F0FDFE0346FB85A5
:1025F000FB8D002BFCD1044B1B68084A1360FB8D3C
:1026000018463037BD4680BD240000202800002039
:102610000C2B002040000020440000204800002037
:1026200080B5A4B000AF786039600023C7F8883067
:102630000023C7F88C3007F10803802200211846D8
:1026400006F03EFC0E4B1B68002B12D007F108026F
:102650000C4B3968786806F0DDFFC7F88800D7F8BA
:10266000882007F1080311461846FFF7FFFEC7F858
:102670008C00D7F88C3018469037BD4680BD00BF1F
:10268000480000204B91006080B584B000AF7860B6
:102690000023FB60124B1B68002B1DD0104B1B68E6
:1026A0009B68002B18D00E4B1B687A68DA600C4BC5
:1026B0001B689B6807F10C021146184607F02FFDB6
:1026C000FB68002B09D0074B4FF080521A60BFF314
:1026D0004F8FBFF36F8F00E000BF1037BD4680BD46
:1026E0004C00002004ED00E080B586B000AFF8603B
:1026F000B9601346FB71FB68002B02D0BB68002B4E
:1027000002D14FF0FF338AE0474AFB681360FB6851
:10271000BA681A60FB68FA791A71FB6800225A716C
:10272000FB6800229A71FB680022DA600322002114
:10273000012007F082FC0246FB689A60FB689B68F8
:10274000002B02D14FF0FF3369E0FB689B6800214A
:10275000184601F0AFFBFB681B689B68334898473D
:102760000346002B02D04FF0FF3358E0FB681B6894
:102770001B69022098470346002B02D04FF0FF331D
:102780004DE0FB681B689B6A0121022098470346C5
:10279000002B02D04FF0FF3341E0F86807F0A4FAB5
:1027A00078617B696C2B02D04FF0FF3337E007F183
:1027B00013031A461221F86807F084FA0346002B27
:1027C00002D04FF0FF332AE0FB7C63F07F03DBB2E3
:1027D000FB74FB7C1A461221F86807F0B9F903462E
:1027E000002B02D04FF0FF3319E0282001F0CAFD82
:1027F00000220021F86807F08DFA0346002B02D072
:102800004FF0FF330BE000220021F86807F0ACFA2C
:102810000346002B02D04FF0FF3300E000231846A0
:102820001837BD4680BD00BF4C00002089260060DF
:1028300080B586B000AF7860396007F108031946AB
:10284000786807F0BBFA0346002B02D04FF0FF3345
:1028500052E04FF000037B617B685B79032B17D854
:1028600001A252F823F000BF792800608B28006095
:102870007F28006085280060214B7B610BE0214BA5
:102880007B6108E0204B7B6105E0204B7B6102E02F
:102890001B4B7B6100BFBB6807EE903AB8EEE77A4E
:1028A000D7ED056A9FED1A6AC6EE867A67EE277A3B
:1028B0003B68C3ED007AFB6807EE903AB8EEE77A22
:1028C000D7ED056A9FED126AC6EE867A67EE277A23
:1028D0003B68C3ED017A3B6907EE903AB8EEE77AC0
:1028E000D7ED056A9FED0A6AC6EE867A67EE277A0B
:1028F0003B68C3ED027A002318461837BD4680BDF9
:1029000023DB793D23DBF93D23DB793E23DBF93EF5
:1029100000007A4480B586B000AF7860396007F176
:1029200008031946786807F081FA0346002B02D0A5
:102930004FF0FF3352E04FF000037B617B689B79DF
:10294000032B17D801A252F823F000BF5D290060C5
:1029500063290060692900606F290060214B7B6159
:102960000BE0214B7B6108E0204B7B6105E0204BB5
:102970007B6102E01B4B7B6100BFBB6807EE903AB6
:10298000B8EEE77AD7ED056A9FED1A6AC6EE867A49
:1029900067EE277A3B68C3ED007AFB6807EE903A52
:1029A000B8EEE77AD7ED056A9FED126AC6EE867A31
:1029B00067EE277A3B68C3ED017A3B6907EE903AF0
:1029C000B8EEE77AD7ED056A9FED0A6AC6EE867A19
:1029D00067EE277A3B68C3ED027A00231846183762
:1029E000BD4680BD00000C4100008C4100000C423F
:1029F00000008C4200007A4480B582B002AF05F03E
:102A000075FB08F0BAFE08F029FE08F049FE3348CD
:102A100006F0CEFB00221C21322007F00EFB0346FD
:102A20002F4A13602E4B1B68002B05D12D4806F052
:102A3000BFFB4FF0FF334EE02B4B01930423009379
:102A400000234FF4AD722949294807F0A9FD034638
:102A5000012B14BF01230023DBB2002B05D0254836
:102A600006F0A6FB4FF0FF3335E0234B0193012323
:102A7000009300234FF4AD722049214807F090FDE8
:102A80000346012B14BF01230023DBB2002B05D02A
:102A90001C4806F08DFB4FF0FF331CE01A4B0193EE
:102AA00002230093002340F25A221849184807F0E5
:102AB00077FD0346012B14BF01230023DBB2002B5B
:102AC00005D0144806F074FB4FF0FF3303E001F02B
:102AD00045FE00BFFDE71846BD4680BDCCB700608F
:102AE00078000020F0B700606000002018B8006097
:102AF000412D006028B800606400002050B80060DC
:102B0000192B00605CB800607400002088B8006079
:102B1000E52C006094B8006080B584B000AF7860A8
:102B2000364806F045FB06F059FB0346FB73FB7B7A
:102B30001946334806F03CFBFB7B613B052B55D81F
:102B400001A252F823F000BF612B0060ED2B006062
:102B5000B52B00608B2B0060ED2B0060DF2B00603D
:102B6000284B1B78DBB2012B0CBF01230023DBB207
:102B7000002B06D0244806F01BFB224B02221A70C1
:102B80003AE0224806F014FB36E01E4B1B78DBB21D
:102B9000022B0CBF01230023DBB2002B06D01C4804
:102BA00006F006FB174B01221A7025E0194806F0C3
:102BB000FFFA21E0134B1B78DBB2012B0CBF012382
:102BC0000023DBB2002B06D0134806F0F1FA0D4BC0
:102BD00004221A7010E0114806F0EAFA0CE01048DE
:102BE00006F0E6FA074B03221A7005E0FB7B194654
:102BF0000C4806F0DDFA00BF92E700BFB8B80060ED
:102C0000F8B800600D2B002000B900602CB90060FE
:102C100060B9006094B90060BCB90060E4B90060BC
:102C20001CBA006040BA006080B500AF054806F0ED
:102C3000BFFA054806F0BCFA044806F0B9FA0123C9
:102C4000184680BD58BA00607CBA00609CBA00602B
:102C50002DE9F04F91B00AAF78617B691E687B69FE
:102C60005B68184606F0D4F8C7E902017B699B68E7
:102C7000184606F0CDF804460D467B69DB68184619
:102C800006F0C6F8804689467B691B69184606F03F
:102C9000BFF882468B467B695B69184606F0B8F838
:102CA000C7E900017B699B69184606F0B1F8024646
:102CB0000B46CDE9082397ED007B8DED067BCDE932
:102CC00004ABCDE90289CDE90045D7E902233146BD
:102CD000034806F06DFA00BF1C37BD46BDE8F08F13
:102CE000C4BA006080B58AB000AF7860FFF79CFF7F
:102CF000034683F00103DBB2002B05D00E4806F03B
:102D000057FA002001F074FB0C4B1B6807F10C0113
:102D10004FF0FF32184600F0EBFF0346012B0CBFCB
:102D200001230023DBB2002BEED007F10C03184681
:102D3000FFF78EFFE8E700BF0CBB006078000020C3
:102D400080B586B002AF78600023FB73654B00222C
:102D50001A70654806F02CFA6A2264496448FFF745
:102D6000C3FC0346002B0FD100220321604806F06C
:102D7000D1FF0346002B07D1002203215C4806F057
:102D8000F3FF0346002B01D0012300E00023002BBA
:102D900006D0584806F00CFA524B03221A7005E090
:102DA000554806F005FA4F4B01221A70534B019318
:102DB000022300930023DA225149524807F0F0FB26
:102DC000514B01930323009300234FF4AD724F49FD
:102DD0004F4807F0E5FB4F4B01930223009300237C
:102DE000DA224D494D4807F0DBFB444B1B6818467F
:102DF00001F0FEFA444B1B68184601F0F9FA454B06
:102E00001B68184601F0F4FA364B1B78DBB2FA7BEC
:102E10009A4214BF01230023DBB2002B5DD0FB7B61
:102E2000304A1278D2B219463D4806F0C1F9FB7B10
:102E3000042B12D0042B16DC012B02D0022B06D05F
:102E400011E02E4B1B68184601F0D2FA0CE02E4B15
:102E50001B68184601F0CCFA06E02E4B1B6818469A
:102E600001F0C6FA00E000BF1E4B1B78DBB2013B4D
:102E7000032B2ED801A252F823F000BF8D2E006044
:102E8000992E0060B12E0060A52E00601B4B1B68C0
:102E9000184601F093FB1DE01B4B1B68184601F020
:102EA0008DFB17E01B4B1B68184601F087FB11E0F8
:102EB0001C4806F07DF91C4B1B68184601F098FA77
:102EC0001A4B1B68184601F093FA002001F090FAA3
:102ED00000E000BF034B1B78FB730A2001F052FA9D
:102EE00092E700BF0D2B00204CBB0060E0C20060E9
:102EF000500000205CBB006098BB006068000020B0
:102F0000C0BB0060312F00606C000020CCBB0060B3
:102F1000512F006070000020D8BB0060DD2F0060E2
:102F2000E8BB006008BC0060640000207400002062
:102F300080B582B000AF7860044806F039F94FF4EC
:102F4000C87001F01FFA00BFF6E700BF3CBC00608C
:102F500080B58CB000AF78600423FB6201F056FDB1
:102F60000346FB6007F10C030421184601F088F9C1
:102F700007F11003043319461448FFF759FC0346C0
:102F8000002B09D107F11003103319460F48FFF742
:102F9000C1FC0346002B01D0012300E00023002BDD
:102FA00006D00B4806F004F90A4B03221A700BE016
:102FB00001F02CFD03463B61074B186807F1100137
:102FC0000023002200F092FDCCE700BF500000205B
:102FD00074BC00600D2B00207800002080B582B00A
:102FE00000AF78600A4806F0E3F80A4806F0E0F817
:102FF0004FF4C87001F0C6F9074806F0D9F8074B3E
:1030000001221A70002001F0F3F900BFEAE700BFC7
:10301000B0BC0060C4BC0060F8BC00600D2B002098
:1030200080B58EB000AF78600023FB627B68002B18
:1030300022D00823DB437A689A421BD808227B6897
:1030400013447B607B6803F00703002B14D07B687C
:1030500003F00703C3F10803BB62BB6ADB437A6872
:103060009A4204D87A68BB6A13447B6004E0002368
:103070007B6001E000237B6001F0B4FB7A4B1B68AE
:10308000002B01D100F074F97B68002BC0F2D380D3
:103090007B68002B00F0CF80744B1B687A689A42E3
:1030A00000F2C980724B3B63714B1B687B637B6B87
:1030B000704A934205D37B6B6F4A934201D8012338
:1030C00000E00023002B29D14FF0200383F3118867
:1030D000BFF36F8FBFF34F8F3B6200BF00BFFDE7B1
:1030E0007B6B3B637B6B1B687B637B6B614A9342AF
:1030F00005D37B6B604A934201D8012300E0002393
:10310000002B0BD14FF0200383F31188BFF36F8F97
:10311000BFF34F8FFB6100BF00BFFDE77B6B5B68B8
:103120007A689A4203D97B6B1B68002BD8D14E4B2F
:103130001B687A6B9A427ED03B6B1B680822134453
:10314000FB62FB6A4B4A934205D3FB6A4A4A9342AD
:1031500001D8012300E00023002B0BD14FF0200306
:1031600083F31188BFF36F8FBFF34F8FBB6100BF35
:1031700000BFFDE77B6B1A683B6B1A607B6B5B687B
:103180007A689A420BD94FF0200383F31188BFF37A
:103190006F8FBFF34F8F7B6100BF00BFFDE77B6B7D
:1031A0005A687B68D21A08235B009A4224D97A6B4A
:1031B0007B6813447B627B6A03F00703002B0BD010
:1031C0004FF0200383F31188BFF36F8FBFF34F8F4E
:1031D0003B6100BF00BFFDE77B6B5A687B68D21A7A
:1031E0007B6A5A607B6B7A685A603B6B1A687B6AB1
:1031F0001A603B6B7A6A1A601C4B1A687B6B5B68BF
:10320000D31A1A4A1360194B1A681C4B1B689A424E
:1032100003D2164B1B68194A13607B6B5B6843F043
:1032200000427B6B5A607B6B00221A60144B1B6858
:103230000133134A136001F0E3FAFB6A03F007035A
:10324000002B0BD04FF0200383F31188BFF36F8F57
:10325000BFF34F8FFB6000BF00BFFDE7FB6A18465E
:103260003837BD4680BD00BF842800208828002054
:103270007C2800207C0000207B2800208C28002057
:103280009028002080B588B000AF78607B68FB6133
:103290007B68002B60D008235B42FA691344FB6112
:1032A000FB69BB61BB692E4A934205D3BB692D4ABA
:1032B000934201D8012300E00023002B0BD14FF0F3
:1032C000200383F31188BFF36F8FBFF34F8F7B61B0
:1032D00000BF00BFFDE7BB695B68002B0BDB4FF055
:1032E000200383F31188BFF36F8FBFF34F8F3B61D0
:1032F00000BF00BFFDE7BB691B68002B0BD04FF080
:10330000200383F31188BFF36F8FBFF34F8FFB60F0
:1033100000BF00BFFDE7BB695B68002B1CDABB691F
:103320001B68002B18D1BB695B6823F00042BB69A6
:103330005A6001F057FABB695A680B4B1B6813447B
:10334000094A1360B86900F06DF8084B1B68013337
:10335000064A136001F054FA00BF2037BD4680BD15
:103360007C0000207B280020882800209428002052
:1033700080B485B000AF4FF42053BB60244BFB609A
:10338000FB6803F00703002B0CD0FB680733FB60DE
:10339000FB6823F00703FB60BA68FB68D31A1C4A7A
:1033A0001344BB60FB681B4A13601A4B00225A602F
:1033B000FA68BB6813447B6008227B689B1A7B60B9
:1033C0007B6823F007037B607B68134A1360124B12
:1033D0001B6800225A60104B1B6800221A60FB68B1
:1033E0003B603B687A68D21A3B685A600A4B1A689D
:1033F0003B681A603B685B68084A13603B685B681F
:10340000074A136000BF1437BD465DF8047B704760
:103410007C0000207C280020842800208C280020AC
:103420008828002080B487B000AF7860364B7B617D
:1034300002E07B691B687B617B691B687A689A4242
:10344000F7D87B69304A934218D07B692F4A934260
:1034500005D37B692E4A934201D8012300E0002363
:10346000002B0BD14FF0200383F31188BFF36F8F34
:10347000BFF34F8FFB6000BF00BFFDE77B693B617F
:103480007B695B683A6913447A689A4208D17B6920
:103490005A687B685B681A447B695A607B697B6009
:1034A0007B683B617B685B683A691A447B691B688F
:1034B0009A4218D17B691A68164B1B689A420DD044
:1034C0007B685A687B691B685B681A447B685A6032
:1034D0007B691B681A687B681A6008E00D4B1A68E4
:1034E0007B681A6003E07B691A687B681A607A69F6
:1034F0007B689A4202D07B697A681A6000BF1C37E9
:10350000BD465DF8047B70477C2800207C000020CD
:103510007B2800208428002080B485B000AFF860AC
:10352000B9607A60FB68043BFB60FB684FF0807217
:103530001A60FB68043BFB60BB6823F00102FB6878
:103540001A60FB68043BFB600C4AFB681A60FB686E
:10355000143BFB607A68FB681A60FB68043BFB6005
:10356000FB686FF002021A60FB68203BFB60FB689F
:1035700018461437BD465DF8047B704781350060FE
:1035800080B485B000AF00237B60134B1B68B3F1A0
:10359000FF3F0BD04FF0200383F31188BFF36F8FF1
:1035A000BFF34F8FFB6000BF00BFFDE74FF020036C
:1035B00083F31188BFF36F8FBFF34F8FBB6000BFE2
:1035C00000BF7B68002BFCD000BF00BF1437BD4696
:1035D0005DF8047B704700BF0000002008480068C9
:1035E000006880F308884FF0000080F3148862B60A
:1035F00061B6BFF34F8FBFF36F8F00DF00BF0000D6
:1036000008ED00E000BF00BF80B58CB000AF694B93
:103610001B68694A93420BD14FF0200383F3118852
:10362000BFF36F8FBFF34F8F3B6200BF00BFFDE75B
:10363000604B1B68614A93420BD14FF0200383F328
:103640001188BFF36F8FBFF34F8F7B6200BF00BF46
:10365000FDE75B4B1B68FB62FB6A2C331B68594A16
:1036600093420BD04FF0200383F31188BFF36F8F89
:10367000BFF34F8FFB6100BF00BFFDE7FB6A38332C
:103680001B68514A93420BD04FF0200383F31188FB
:10369000BFF36F8FBFF34F8FBB6100BF00BFFDE76C
:1036A0000023BB60494BBB62BB6A1B78DBB2FB7378
:1036B000BB6AFF221A70BB6A1B78DBB2FB71FB7915
:1036C000DBB203F02003DAB2414B1A70404B1B7897
:1036D000002B0BD14FF0200383F31188BFF36F8FC2
:1036E000BFF34F8F7B6100BF00BFFDE7FB79DBB20B
:1036F000DB4303F02003002B13D04FF0200383F3B0
:103700001188BFF36F8FBFF34F8F3B6100BF00BFC6
:10371000FDE7BB680133BB60FB79DBB25B00DBB26A
:10372000FB71FB79DBB203F08003802BF1D0BB6827
:10373000082B03D1274B00221A6004E0BB68C3F1B9
:103740000703244A1360234B1B681B02214A1360A2
:10375000204B1B6803F4E0631E4A1360FB7BDAB264
:10376000BB6A1A701C4B1B681B4A43F47F0313602F
:10377000194B1B68184A43F07F431360174B002214
:103780001A6000F0AFF8164B00221A6000F0CEF875
:10379000144B1B68134A43F040431360FFF71EFFAE
:1037A00001F05AFAFFF7ECFE002318463037BD4609
:1037B00080BD00BF00ED00E071C20F4170C20F413B
:1037C00008ED00E0612300609123006000E400E068
:1037D0000E2B00209828002020ED00E01CED00E0DA
:1037E0000000002034EF00E080B483B000AF4FF061
:1037F000200383F31188BFF36F8FBFF34F8F7B607C
:1038000000BF104B1B6801330E4A13600D4B1B6841
:10381000012B10D10C4B1B68DBB2002B0BD04FF0EF
:10382000200383F31188BFF36F8FBFF34F8F3B608B
:1038300000BF00BFFDE700BF0C37BD465DF8047B4D
:10384000704700BF0000002004ED00E080B483B0AA
:1038500000AF124B1B68002B0BD14FF0200383F3FA
:103860001188BFF36F8FBFF34F8F7B6000BF00BF26
:10387000FDE70A4B1B68013B084A1360074B1B68B6
:10388000002B05D100233B603B6883F3118800BF08
:1038900000BF0C37BD465DF8047B70470000002078
:1038A00080B582B000AF4FF0200383F31188BFF3DF
:1038B0006F8FBFF34F8F7B6000BF01F0C3F80346EB
:1038C000002B03D0064B4FF080521A6000233B6060
:1038D0003B6883F3118800BF00BF0837BD4680BD39
:1038E00004ED00E080B400AF0B4B00221A600B4BDC
:1038F00000221A600A4B1B680A4AA2FB03239B0999
:10390000094A013B1360044B07221A6000BFBD4601
:103910005DF8047B704700BF10E000E018E000E0B5
:10392000200000201F85EB5114E000E0DFF80C00C0
:10393000016841F4700101607047000088ED00E00B
:1039400000BF00BF80B485B000AFEFF30583FB601C
:10395000FB680F2B15D9184AFB6813441B78FB72C0
:10396000164B1B78FA7A9A420BD24FF0200383F35E
:103970001188BFF36F8FBFF34F8F7B6000BF00BF15
:10398000FDE70F4B1B6803F4E0620E4B1B689A4285
:103990000BD94FF0200383F31188BFF36F8FBFF370
:1039A0004F8F3B6000BF00BFFDE700BF1437BD462F
:1039B0005DF8047B704700BFF0E300E00E2B0020B1
:1039C0000CED00E09828002080B586B000AF78604C
:1039D000396001237B617B683B613B69002B0BD124
:1039E0004FF0200383F31188BFF36F8FBFF34F8F26
:1039F000FB6000BF00BFFDE73B69002B5DD03B696A
:103A0000DB6B002B59D03B691A6C3B69DB6B0021E7
:103A1000A3FB0223002B00D001210B46002B4CD12D
:103A2000FFF7E2FE3B691A683B69DB6B3969096C99
:103A300001FB03F31A443B699A603B6900229A63D5
:103A40003B691A683B695A603B691A683B69DB6BE2
:103A5000013B3969096C01FB03F31A443B69DA60E5
:103A60003B69FF2283F844203B69FF2283F845200D
:103A70003B68002B14D13B691B69002B1AD03B69B2
:103A80001033184601F0B2F90346002B12D0164B42
:103A90004FF080521A60BFF34F8FBFF36F8F09E072
:103AA0003B691033184606F014FA3B692433184674
:103AB00006F00FFAFFF7CAFE01E000237B617B6985
:103AC000002B0BD14FF0200383F31188BFF36F8FCE
:103AD000BFF34F8FBB6000BF00BFFDE77B69184697
:103AE0001837BD4680BD00BF04ED00E080B58EB044
:103AF00000AFF860B9607A603B6000237B63FB68CD
:103B00003B633B6B002B0BD14FF0200383F31188F9
:103B1000BFF36F8FBFF34F8FBB6200BF00BFFDE7E6
:103B2000BB68002B03D13B6B1B6C002B01D1012325
:103B300000E00023002B0BD14FF0200383F311880A
:103B4000BFF36F8FBFF34F8F7B6200BF00BFFDE7F6
:103B50003B68022B03D13B6BDB6B012B01D10123B3
:103B600000E00023002B0BD14FF0200383F31188DA
:103B7000BFF36F8FBFF34F8F3B6200BF00BFFDE706
:103B800001F038FB0346002B02D17B68002B01D1EA
:103B9000012300E00023002B0BD14FF0200383F31F
:103BA0001188BFF36F8FBFF34F8FFB6100BF00BF62
:103BB000FDE7FFF719FE3B6B9A6B3B6BDB6B9A42A1
:103BC00002D33B68022B29D13A68B968386B06F0FA
:103BD00066FBF8623B6B5B6A002B10D03B6B2433B7
:103BE000184601F003F90346002B13D03F4B4FF06A
:103BF00080521A60BFF34F8FBFF36F8F0AE0FB6AEA
:103C0000002B07D0394B4FF080521A60BFF34F8F13
:103C1000BFF36F8FFFF71AFE012363E07B68002B71
:103C200003D1FFF713FE00235CE07B6B002B06D172
:103C300007F11403184601F0B1F901237B63FFF784
:103C400005FE00F0CFFDFFF7CFFD3B6B93F844304E
:103C50005BB2B3F1FF3F03D13B6B002283F84420FA
:103C60003B6B93F845305BB2B3F1FF3F03D13B6B45
:103C7000002283F84520FFF7E9FD3A1D07F1140300
:103C80001146184601F0A0F90346002B24D1386BE9
:103C900006F0FDFB0346002B18D03B6B10337A680F
:103CA0001146184601F036F8386B06F088FB00F034
:103CB000A7FD0346002B7FF47CAF0C4B4FF08052E6
:103CC0001A60BFF34F8FBFF36F8F72E7386B06F048
:103CD00076FB00F095FD6CE7386B06F070FB00F0AA
:103CE0008FFD002318463837BD4680BD04ED00E047
:103CF00080B58CB000AFF860B9607A600023FB62D9
:103D0000FB68BB62BB6A002B0BD14FF0200383F32F
:103D10001188BFF36F8FBFF34F8F3B6200BF00BFAF
:103D2000FDE7BB68002B03D1BB6A1B6C002B01D1E4
:103D3000012300E00023002B0BD14FF0200383F37D
:103D40001188BFF36F8FBFF34F8FFB6100BF00BFC0
:103D5000FDE701F04FFA0346002B02D17B68002BF0
:103D600001D1012300E00023002B0BD14FF02003F1
:103D700083F31188BFF36F8FBFF34F8FBB6100BF19
:103D800000BFFDE7FFF730FDBB6A9B6B7B627B6A80
:103D9000002B1FD0B968B86A06F0EBFA7B6A5A1E8E
:103DA000BB6A9A63BB6A1B69002B0FD0BB6A1033D6
:103DB000184601F01BF80346002B07D03C4B4FF090
:103DC00080521A60BFF34F8FBFF36F8FFFF73EFD36
:103DD000012369E07B68002B03D1FFF737FD002347
:103DE00062E0FB6A002B06D107F11003184601F0D0
:103DF000D5F80123FB62FFF729FD00F0F3FCFFF784
:103E0000F3FCBB6A93F844305BB2B3F1FF3F03D1DC
:103E1000BB6A002283F84420BB6A93F845305BB24A
:103E2000B3F1FF3F03D1BB6A002283F84520FFF7BF
:103E30000DFD3A1D07F110031146184601F0C4F8B4
:103E40000346002B23D1B86A06F00BFB0346002B78
:103E500017D0BB6A24337A681146184600F05AFF1F
:103E6000B86A06F0ACFA00F0CBFC0346002B89D10F
:103E70000F4B4FF080521A60BFF34F8FBFF36F8F1D
:103E800080E7B86A06F09BFA00F0BAFC7AE7B86AF5
:103E900006F095FA00F0B4FCB86A06F0E2FA0346C0
:103EA000002B3FF46FAF002318463037BD4680BD6E
:103EB00004ED00E080B58CB000AF7860396000237D
:103EC000FB627B687B620023BB627B6A002B0BD1A9
:103ED0004FF0200383F31188BFF36F8FBFF34F8F31
:103EE000BB6100BF00BFFDE77B6A1B6C002B0BD0E2
:103EF0004FF0200383F31188BFF36F8FBFF34F8F11
:103F00007B6100BF00BFFDE701F074F90346002BA1
:103F100002D13B68002B01D1012300E00023002BDC
:103F20000BD14FF0200383F31188BFF36F8FBFF3E2
:103F30004F8F3B6100BF00BFFDE7FFF755FC7B6A79
:103F40009B6B3B623B6A002B24D03B6A5A1E7B6A08
:103F50009A637B6A1B68002B04D101F067FB024661
:103F60007B6A9A607B6A1B69002B0FD07B6A1033D7
:103F7000184600F03BFF0346002B07D04C4B4FF098
:103F800080521A60BFF34F8FBFF36F8FFFF75EFC55
:103F9000012389E03B68002B03D1FFF757FC002386
:103FA00082E0FB6A002B06D107F10803184600F0F7
:103FB000F5FF0123FB62FFF749FC00F013FCFFF75C
:103FC00013FC7B6A93F844305BB2B3F1FF3F03D13B
:103FD0007B6A002283F844207B6A93F845305BB209
:103FE000B3F1FF3F03D17B6A002283F84520FFF73E
:103FF0002DFC3A4607F108031146184600F0E4FF8D
:104000000346002B32D1786A06F02BFA0346002BC8
:1040100026D07B6A1B68002B09D1FFF7E5FB7B6A82
:104020009B68184601F004F9B862FFF70FFC7B6A41
:1040300024333A681146184600F06CFE786A06F0A0
:10404000BEF900F0DDFB0346002B7FF476AF184B82
:104050004FF080521A60BFF34F8FBFF36F8F6CE742
:10406000786A06F0ACF900F0CBFB66E7786A06F0F8
:10407000A6F900F0C5FB786A06F0F3F90346002BB9
:104080003FF45BAFBB6A002B0DD0FFF7ADFB786A46
:1040900006F0EDF8F8617B6A9B68F969184601F053
:1040A0000BFAFFF7D3FB002318463037BD4680BD1F
:1040B00004ED00E080B487B000AF78603960002381
:1040C0003B617B68002B0BD14FF0200383F31188F9
:1040D000BFF36F8FBFF34F8FFB6000BF00BFFDE7E3
:1040E0003B68002B24D000237B611EE0184A7B69CB
:1040F000DB0013445B687A689A4205D17B69DB0078
:10410000134A13443B6113E03B69002B0AD1104A68
:104110007B6952F83330002B04D17B69DB000C4AF9
:1041200013443B617B6901337B617B69072BDDD9DC
:104130003B69002B05D03B693A681A603B697A6895
:104140005A6000BF1C37BD465DF8047B704700BF56
:104150009C28002080B584B000AF7860FFF744FB56
:10416000404B1B6801333F4A13603F4B1B68002BD9
:1041700009D13D4A7B6813603A4B1B68012B10D173
:1041800000F0AEFF0DE0394B1B68002B09D1364B18
:104190001B68DA6A7B68DB6A9A4202D8324A7B681B
:1041A0001360334B1B680133314A1360304B1A687C
:1041B0007B689A647B68DB6A01229A402D4B1B68FE
:1041C00013432C4A13607B68DA6A2B4913469B0021
:1041D00013449B000B4404331B68FB607B68FA6844
:1041E0009A60FB689A687B68DA60FB689B687A680B
:1041F00004325A607B681A1DFB689A607B68DA6A31
:1042000013469B0013449B001B4A1A447B685A6167
:104210007B68DA6A184913469B0013449B000B44E1
:104220001B68591C144813469B0013449B0003440D
:104230001960FFF70BFB0D4B1B68002B0ED00A4BD0
:104240001B68DA6A7B68DB6A9A4207D20B4B4FF035
:1042500080521A60BFF34F8FBFF36F8F00BF1037CC
:10426000BD4680BDB4290020DC280020C0290020E4
:10427000D0290020BC290020E028002004ED00E027
:1042800080B58AB000AF7860396000237B627B68BC
:10429000002B0BD14FF0200383F31188BFF36F8FF6
:1042A000BFF34F8F7B6100BF00BFFDE73B68002B72
:1042B0000BD14FF0200383F31188BFF36F8FBFF34F
:1042C0004F8F3B6100BF00BFFDE700F08BFA2A4B28
:1042D0001B683B62294B1B68012B0BD04FF020035E
:1042E00083F31188BFF36F8FBFF34F8FFB6000BF65
:1042F00000BFFDE77B681B683A681344FB617B687D
:104300001B683A6A9A420BD27B681B68FA699A4228
:1043100011D2FA693B6A9A420DD901237B620AE005
:104320007B681B68FA699A4203D3FA693B6A9A422E
:1043300001D901237B627B68FA691A607B6A002BD2
:1043400006D0FA693B6AD31A0021184601F086F9B3
:1043500000F056FAB861BB69002B07D1084B4FF04B
:1043600080521A60BFF34F8FBFF36F8F7B6A18467E
:104370002837BD4680BD00BFB8290020DC290020B9
:1043800004ED00E080B584B000AF78600023FB60EE
:104390007B68002B18D000F025FA134B1B68012B0B
:1043A0000BD04FF0200383F31188BFF36F8FBFF35F
:1043B0004F8FBB6000BF00BFFDE70021786801F0B0
:1043C0004DF900F01DFAF860FB68002B07D1074B90
:1043D0004FF080521A60BFF34F8FBFF36F8F00BF53
:1043E0001037BD4680BD00BFDC29002004ED00E091
:1043F00080B586B000AF7860FFF7F6F97B68002BD8
:1044000002D1434B1B6800E07B683B613B6904338E
:10441000184605F0E8FD0346002B15D13B69DA6A22
:104420003C4913469B0013449B000B441B68002B24
:104430000AD13B69DB6A012202FA03F3DA43364B05
:104440001B681340344A13603B699B6A002B04D0FD
:104450003B691833184605F0C6FD3B69043319461D
:104460002E4805F063FD00237B6110E03A697B690B
:10447000134470331B78DBB2012B05D13A697B6999
:104480001344703300221A707B6901337B617B69AE
:10449000002BEBDDFFF7DAF9214B1B68002B05D071
:1044A000FFF7A2F900F08AFEFFF7D0F9184B1B685E
:1044B0003A699A4228D11A4B1B68002B18D0194B25
:1044C0001B68002B0BD04FF0200383F31188BFF340
:1044D0006F8FBFF34F8FFB6000BF00BFFDE7124B34
:1044E0004FF080521A60BFF34F8FBFF36F8F0BE016
:1044F0000A4B1A680D4B1B689A4203D1044B0022E9
:104500001A6001E000F0A8FB00BF1837BD4680BD6F
:10451000DC280020E0280020BC290020A029002061
:10452000C0290020DC29002004ED00E0B42900208F
:1045300080B487B000AF786000237B617B68FB604C
:104540007B68002B0BD14FF0200383F31188BFF35E
:104550006F8FBFF34F8FBB6000BF00BFFDE7FB68ED
:104560005B69144A93421ED1FB689B6A124A9342CC
:1045700019D0FB689B6A002B15D101237B610023B6
:104580003B610DE0FA683B69134470331B78DBB282
:10459000012B02D100237B6105E03B6901333B61C4
:1045A0003B69002BEEDD7B6918461C37BD465DF884
:1045B000047B7047A02900207429002080B586B0B4
:1045C00000AF78607B687B617B68002B0BD14FF07C
:1045D000200383F31188BFF36F8FBFF34F8FFB600E
:1045E00000BF00BFFDE7344B1B687A699A425FD079
:1045F0007B69002B5CD0FFF7F7F87869FFF798FF2D
:104600000346002B52D07B690433184605F0EBFCBF
:104610007B69DB6A01229A40284B1B681343274AB7
:1046200013607B69DA6A264913469B0013449B009A
:104630000B4404331B683B617B693A699A603B69B0
:104640009A687B69DA603B699B687A6904325A60D0
:104650007B691A1D3B699A607B69DA6A13469B0085
:1046600013449B00164A1A447B695A617B69DA6AD3
:10467000134913469B0013449B000B441B68591CB1
:104680000F4813469B0013449B00034419600A4BD8
:104690001B68DA6A7B69DB6A9A4207D2094B4FF0E2
:1046A00080521A60BFF34F8FBFF36F8FFFF7CEF8C2
:1046B00000BF1837BD4680BDDC280020BC29002083
:1046C000E028002004ED00E080B58CB002AF0123AB
:1046D0007B620023BB610023FB6111E01C4AFB6984
:1046E000134419783A1DFB6913440A461A703A1D9F
:1046F000FB6913441B78002B06D0FB690133FB6177
:10470000FB69132BEADD00E000BF00233B6215E0EC
:10471000104BBB613B6A9B000F4A1344391D019348
:104720000023009300235A22B86905F039FF78620C
:104730007B6A002B06D03B6A01333B623B6A002B4D
:10474000E6DD00E000BF7B6A18462837BD4680BD25
:1047500014BD0060B1500060D829002080B584B03D
:1047600000AFFFF7B1FFF860FB68012B02D100F04A
:10477000F7FFF860FB68012B16D14FF0200383F39D
:104780001188BFF36F8FBFF34F8FBB6000BF114B1A
:104790004FF0FF321A60104B01221A600F4B0022BB
:1047A0001A60FEF731FF0FE0FB68B3F1FF3F0BD15A
:1047B0004FF0200383F31188BFF36F8FBFF34F8F48
:1047C0007B6000BF00BFFDE7054B1B6800BF1037D3
:1047D000BD4680BDD4290020C0290020B829002072
:1047E00088B7006080B400AF044B1B680133034AF4
:1047F000136000BFBD465DF8047B7047DC290020D4
:1048000080B588B000AF0023FB610023BB61FEF7D9
:10481000EBFF00233B61744B1B68002B0BD14FF067
:10482000200383F31188BFF36F8FBFF34F8F3B607B
:1048300000BF00BFFDE76C4B1B68013B6A4A136079
:10484000694B1B68002B40F0C880684B1B68002B2D
:1048500000F0C3808CE0664BDB68DB68FB61FB69C2
:104860009B6AFB60FB69DB69FA69126A9A60FB6903
:104870001B6AFA69D2695A60FB685A68FB69183387
:104880009A4203D1FB691A6AFB685A60FB690022ED
:104890009A62FB681B685A1EFB681A60FB695B69B9
:1048A000BB60FB699B68FA69D2689A60FB69DB6848
:1048B000FA6992685A60BB685A68FB6904339A4285
:1048C00003D1FB69DA68BB685A60FB6900225A6150
:1048D000BB681B685A1EBB681A60FB69DB6A012251
:1048E0009A40444B1B681343424A1360FB69DA6ADF
:1048F000414913469B0013449B000B4404331B683F
:104900007B60FB697A689A607B689A68FB69DA6009
:104910007B689B68FA6904325A60FB691A1D7B68E0
:104920009A60FB69DA6A13469B0013449B00324A83
:104930001A44FB695A61FB69DA6A2F4913469B00E6
:1049400013449B000B441B68591C2B4813469B00C7
:1049500013449B0003441960FB69DA6A274B1B6808
:10496000DB6A9A4204D9264A3B69012142F82310A6
:104970001F4B1B68002B7FF46EAFFB69002B01D02F
:1049800000F01CFC1F4B1B687B617B69002B12D065
:1049900000F058F80346002B04D0194A3B69012166
:1049A00042F823107B69013B7B617B69002BEFD1CF
:1049B000144B00221A60124A3B6952F82330002B34
:1049C0000BD00123BB610D4B1B680F4B4FF0805286
:1049D0001A60BFF34F8FBFF36F8FFEF737FFBB69CE
:1049E00018462037BD4680BDDC290020B4290020B0
:1049F00074290020BC290020E0280020DC280020A9
:104A0000C8290020C429002004ED00E080B483B050
:104A100000AF054B1B687B607B6818460C37BD46B2
:104A20005DF8047B704700BFB829002080B400AF58
:104A3000034B1B681846BD465DF8047B704700BFFA
:104A4000B429002080B58AB000AF00237B62774B89
:104A50001B68002B40F0DF80754B1B6801333B6205
:104A6000734A3B6A13603B6A002B21D1714B1B6870
:104A70001B68002B0BD04FF0200383F31188BFF38A
:104A80006F8FBFF34F8F7B6000BF00BFFDE7694BA7
:104A90001B68FB61684B1B68664A1360664AFB69CA
:104AA0001360664B1B680133644A136000F086FB99
:104AB000634B1B683A6A9A42C0F0A6805D4B1B6844
:104AC0001B68002B04D15E4B4FF0FF321A609BE055
:104AD000584B1B68DB68DB68BB61BB695B687B614B
:104AE0003A6A7B699A4203D2554A7B6913608BE02C
:104AF000BB695B693B61BB699B68BA69D2689A60B4
:104B0000BB69DB68BA6992685A603B695A68BB69DD
:104B100004339A4203D1BB69DA683B695A60BB69C6
:104B200000225A613B691B685A1E3B691A60BB69C7
:104B30009B6A002B1ED0BB699B6AFB60BB69DB696B
:104B4000BA69126A9A60BB691B6ABA69D2695A600B
:104B5000FB685A68BB6918339A4203D1BB691A6A69
:104B6000FB685A60BB6900229A62FB681B685A1E88
:104B7000FB681A60BB69DB6A01229A40314B1B68F3
:104B80001343304A1360BB69DA6A2F4913469B000E
:104B900013449B000B4404331B68BB60BB69BA68B9
:104BA0009A60BB689A68BB69DA60BB689B68BA693F
:104BB00004325A60BB691A1DBB689A60BB69DA6A25
:104BC00013469B0013449B001F4A1A44BB695A6159
:104BD000BB69DA6A1C4913469B0013449B000B44D3
:104BE0001B68591C184813469B0013449B00034440
:104BF0001960BB69DA6A154B1B68DB6A9A427FF65B
:104C00005DAF01237B6259E7114B1B68002B07D076
:104C100001237B6204E00F4B1B6801330D4A1360D4
:104C20007B6A18462837BD4680BD00BFDC290020BE
:104C3000B82900206C29002070290020CC290020F0
:104C4000D4290020BC290020E0280020DC280020F6
:104C5000C8290020C429002080B487B000AF284BA9
:104C60001B68002B03D0274B01221A6041E0254B23
:104C700000221A60244B1B68FB60FB68B3FA83F3C5
:104C8000FB72FB7AC3F11F037B6120497A691346EB
:104C90009B0013449B000B441B68002B0BD14FF06F
:104CA000200383F31188BFF36F8FBFF34F8F7B60B7
:104CB00000BF00BFFDE77A6913469B0013449B00C9
:104CC000124A13443B613B695B685A683B695A600E
:104CD0003B695A683B6908339A4203D13B69DA68F9
:104CE0003B695A603B695B68DB68094A1360084BA3
:104CF0001B6800BF1C37BD465DF8047B704700BFD2
:104D0000DC290020C8290020BC290020E028002040
:104D1000DC28002080B584B000AF786039607B6803
:104D2000002B0BD14FF0200383F31188BFF36F8F5B
:104D3000BFF34F8FFB6000BF00BFFDE7074B1B6851
:104D400018331946786805F015F90121386800F024
:104D500085FC00BF1037BD4680BD00BFDC280020A9
:104D600080B586B000AFF860B9607A60FB68002B50
:104D70000BD14FF0200383F31188BFF36F8FBFF384
:104D80004F8F3B6100BF00BFFDE7FB685B687B6145
:104D9000154B1B687A69DA61134B1B687A69926854
:104DA0001A62114B1A687B699B6818325A600E4B65
:104DB0001B6803F118027B699A600B4B1B68FA6849
:104DC0009A62FB681B685A1CFB681A607B68002BA0
:104DD00002D04FF0FF33BB607968B86800F03EFC4A
:104DE00000BF1837BD4680BDDC28002080B48BB0E2
:104DF00000AF78607B68DB68DB683B623B6A002B56
:104E00000BD14FF0200383F31188BFF36F8FBFF3F3
:104E10004F8FFB6000BF00BFFDE73B6A9B6AFB61F1
:104E20003B6ADB693A6A126A9A603B6A1B6A3A6AB1
:104E3000D2695A60FB695A683B6A18339A4203D1B7
:104E40003B6A1A6AFB695A603B6A00229A62FB69F4
:104E50001B685A1EFB691A604A4B1B68002B5ED107
:104E60003B6A5B697B613B6A9B683A6AD2689A607D
:104E70003B6ADB683A6A92685A607B695A683B6AA7
:104E800004339A4203D13B6ADA687B695A603B6A11
:104E900000225A617B691B685A1E7B691A603B6A53
:104EA000DB6A01229A40384B1B681343364A136071
:104EB0003B6ADA6A354913469B0013449B000B4456
:104EC00004331B683B613B6A3A699A603B699A68A4
:104ED0003B6ADA603B699B683A6A04325A603B6A13
:104EE0001A1D3B699A603B6ADA6A13469B001344B9
:104EF0009B00264A1A443B6A5A613B6ADA6A234994
:104F000013469B0013449B000B441B68591C1F480D
:104F100013469B0013449B00034419601BE01C4B89
:104F20005B68BB613B6ABA69DA61BB699A683B6AD4
:104F30001A62BB699B683A6A18325A603B6A03F18D
:104F40001802BB699A603B6A114A9A62104B1B684F
:104F500001330F4A13603B6ADA6A0E4B1B68DB6A47
:104F60009A4205D901237B620B4B01221A6001E0B2
:104F700000237B627B6A18462C37BD465DF8047BB4
:104F8000704700BFDC290020BC290020E028002059
:104F900074290020DC280020C829002080B483B0B8
:104FA00000AF7860064B1A687B681A60054B1A6878
:104FB0007B685A6000BF0C37BD465DF8047B7047C4
:104FC000CC290020B829002080B588B000AF7860D7
:104FD00039607B68002B0BD14FF0200383F31188DD
:104FE000BFF36F8FBFF34F8F3B6100BF00BFFDE783
:104FF0003B68002B0BD14FF0200383F31188BFF3E4
:105000006F8FBFF34F8FFB6000BF00BFFDE7FEF760
:10501000EBFB1F4B1B68BB617B685B68BA69D31AEB
:105020007B613B681B68B3F1FF3F02D10023FB614A
:1050300026E07B681A68174B1B689A420AD07B6887
:105040005B68BA699A4205D30123FB613B68002281
:105050001A6015E03B681B687A699A420BD23B687C
:105060001A687B69D21A3B681A607868FFF796FF66
:105070000023FB6104E03B6800221A600123FB610E
:10508000FEF7E4FBFB6918462037BD4680BD00BF34
:10509000B8290020CC29002080B400AF034B0122A6
:1050A0001A6000BFBD465DF8047B7047C829002028
:1050B00080B582B000AF786000F052F8064B1B68F4
:1050C000012BF9D9054B4FF080521A60BFF34F8F77
:1050D000BFF36F8FF0E700BFE028002004ED00E091
:1050E00080B582B000AF00237B600CE07A68134685
:1050F0009B0013449B00124A1344184604F0E9FE37
:105100007B6801337B607B68042BEFD90D4804F08A
:10511000E0FE0D4804F0DDFE0C4804F0DAFE0C4819
:1051200004F0D7FE0B4804F0D4FE0B4B054A1A607E
:105130000A4B054A1A6000BF0837BD4680BD00BF54
:10514000E02800204429002058290020742900204C
:1051500088290020A02900206C2900207029002027
:1051600080B582B000AF19E0FEF73EFB104BDB6864
:10517000DB687B607B680433184604F034FF0D4B1A
:105180001B68013B0B4A13600B4B1B68013B0A4A2F
:105190001360FEF75BFB786805F0B6FA064B1B68F8
:1051A000002BE1D100BF00BF0837BD4680BD00BF66
:1051B00088290020B42900209C29002080B400AF59
:1051C0000A4B1B681B68002B04D1094B4FF0FF32C0
:1051D0001A6005E0054B1B68DB681B68044A136016
:1051E00000BFBD465DF8047B704700BF6C290020FE
:1051F000D429002080B483B000AF0B4B1B68002B78
:1052000002D101237B6008E0084B1B68002B02D110
:1052100002237B6001E000237B607B6818460C372B
:10522000BD465DF8047B7047C0290020DC290020C2
:1052300080B586B000AF78607B683B6100237B61FE
:105240007B68002B00F087803B69DA6A444B1B685F
:10525000DB6A9A4276D23B699B69002B06DB404BA6
:105260001B68DB6AC3F105023B699A613B695969B6
:105270003B69DA6A13469B0013449B00394A134486
:10528000994257D13B690433184604F0ACFE0346FB
:10529000002B0AD13B69DB6A012202FA03F3DA43ED
:1052A000314B1B681340304A13602D4B1B68DA6A80
:1052B0003B69DA623B69DB6A01229A402A4B1B6830
:1052C0001343294A13603B69DA6A264913469B0057
:1052D00013449B000B4404331B68FB603B69FA6872
:1052E0009A60FB689A683B69DA60FB689B683A6978
:1052F00004325A603B691A1DFB689A603B69DA6A9E
:1053000013469B0013449B00164A1A443B695A619A
:105310003B69DA6A134913469B0013449B000B4414
:105320001B68591C0F4813469B0013449B00034401
:10533000196004E00A4B1B68DA6A3B69DA620123F0
:105340007B6108E03B691A6D054B1B68DB6A9A427A
:1053500001D201237B617B6918461837BD4680BDA9
:10536000DC280020E0280020BC29002080B588B07F
:1053700000AF78607B68BB610023FB617B68002B1A
:1053800000F08E80494B1B68BA699A420BD04FF0EF
:10539000200383F31188BFF36F8FBFF34F8F3B61FF
:1053A00000BF00BFFDE7BB695B6D002B0BD14FF069
:1053B000200383F31188BFF36F8FBFF34F8FFB6020
:1053C00000BF00BFFDE7BB695B6D5A1EBB695A6534
:1053D000BB69DA6ABB691B6D9A4261D0BB695B6DC0
:1053E000002B5DD1BB690433184604F0FCFD034675
:1053F000002B0AD1BB69DB6A012202FA03F3DA430C
:105400002B4B1B6813402A4A1360BB691A6DBB699A
:10541000DA62BB69DB6AC3F10502BB699A61BB69E9
:10542000DB6A01229A40224B1B681343204A136017
:10543000BB69DA6A1F4913469B0013449B000B4467
:1054400004331B687B61BB697A699A607B699A68DF
:10545000BB69DA607B699B68BA6904325A60BB69D0
:105460001A1D7B699A60BB69DA6A13469B00134474
:105470009B00104A1A44BB695A61BB69DA6A0D493C
:1054800013469B0013449B000B441B68591C09489E
:1054900013469B0013449B00034419600123FB61E6
:1054A000FB6918462037BD4680BD00BFDC280020C0
:1054B000BC290020E028002080B58AB000AF7860C9
:1054C00039607B683B620123FB617B68002B00F045
:1054D000A3803B6A5B6D002B0BD14FF0200383F35D
:1054E0001188BFF36F8FBFF34F8F3B6100BF00BFC9
:1054F000FDE73B6A1B6D3A689A4202D93B687B62C2
:1055000002E03B6A1B6D7B623B6ADB6A7A6A9A4205
:1055100000F082803B6A5B6DFA699A427CD1404B15
:105520001B683A6A9A420BD14FF0200383F311882B
:10553000BFF36F8FBFF34F8FFB6000BF00BFFDE76E
:105540003B6ADB6ABB613B6A7A6ADA623B6A9B69E7
:10555000002B04DB7B6AC3F105023B6A9A613B6A5C
:105560005969BA6913469B0013449B002D4A1344A2
:10557000994251D13B6A0433184604F034FD034686
:10558000002B0AD13B6ADB6A012202FA03F3DA43F9
:10559000254B1B681340244A13603B6ADB6A0122D7
:1055A0009A40214B1B6813431F4A13603B6ADA6A17
:1055B0001C4913469B0013449B000B4404331B6897
:1055C0007B613B6A7A699A607B699A683B6ADA60B8
:1055D0007B699B683A6A04325A603B6A1A1D7B6990
:1055E0009A603B6ADA6A13469B0013449B000D4A9B
:1055F0001A443B6A5A613B6ADA6A0A4913469B00BD
:1056000013449B000B441B68591C064813469B001F
:1056100013449B000344196000BF2837BD4680BD7A
:10562000DC280020E0280020BC29002080B483B0C2
:1056300000AF094B1B687B607B68002B04D07B6844
:105640005B6D5A1C7B685A657B6818460C37BD46F3
:105650005DF8047B704700BFDC28002080B588B06F
:1056600000AF78603960374B1B68FB61364B1B68B5
:10567000BB61364B1B687B61354B1B680433184696
:1056800004F0B1FC0346002B0BD1314B1B68DB6AE5
:10569000012202FA03F3DA432E4B1B6813402D4A12
:1056A00013607B68B3F1FF3F24D13B68002B21D00E
:1056B000294B5B683B61264B1B683A699A60244B17
:1056C0001B683A699268DA60214B1A683B699B68EB
:1056D00004325A601E4B1B681A1D3B699A601C4BB2
:1056E0001B681D4A5A611C4B1B6801331A4A136020
:1056F00000BF22E0FA697B681344FB60144B1B680F
:10570000FA685A60FA68FB699A4207D2104B1B6824
:1057100004331946786904F02DFC0EE00C4B1B682D
:1057200004331946B86904F025FC0C4B1B68FA6871
:105730009A4202D2094AFB68136000BF2037BD4677
:1057400080BD00BFB82900206C29002070290020EE
:10575000DC280020BC290020A0290020D42900201A
:1057600080B584B002AF00237B6000F039FA114BA2
:105770001B68002B0AD0104B0193042300930023D5
:10578000B4220E490E4804F00BFF78607B68002BB2
:105790000BD14FF0200383F31188BFF36F8FBFF35A
:1057A0004F8F3B6000BF00BFFDE77B68184608379E
:1057B000BD4680BD102A0020142A00201CBD0060B8
:1057C0006BA7006080B584B000AF78603960144B7F
:1057D0001B68DB68DB68FB60FB680433184604F079
:1057E00002FCFB6893F8283003F00403002B05D07B
:1057F0003A687968F86804F097FF08E0FB6893F866
:10580000283023F00103DAB2FB6883F82820FB6814
:105810001B6AF868984700BF1037BD4680BD00BFBF
:10582000082A002080B584B000AF78603960FEF7A8
:10583000D9FF07F10803184600F066F8F860BB6866
:10584000002B30D13B68002B0AD17A68FB689A4262
:1058500006D8FEF7D5FFF9687868FFF7B3FF24E0B4
:105860003B68002B08D0134B1B681B68002B01D131
:10587000012300E000233B600F4B18687A68FB6847
:10588000D31A3A68194604F01AFEFEF7B9FF034628
:10589000002B0AD1094B4FF080521A60BFF34F8F93
:1058A000BFF36F8F01E0FEF7ABFF00BF1037BD46BF
:1058B00080BD00BF0C2A0020102A002004ED00E06B
:1058C00080B485B000AF78600E4B1B681B68002B5E
:1058D00001D1012200E000227B681A607B681B680E
:1058E000002B05D1074B1B68DB681B68FB6001E0E0
:1058F0000023FB60FB6818461437BD465DF8047B47
:10590000704700BF082A002080B584B000AF7860DF
:10591000FFF77CF8F8600B4B1B68FA689A4205D2D7
:1059200000F038F97B6801221A6002E07B680022EF
:105930001A60044AFB681360FB6818461037BD46BE
:1059400080BD00BF182A002080B586B000AFF86087
:10595000B9607A603B6000237B61FB68BA685A607B
:10596000FB68FA681A61BA687B689A4212D87A684A
:105970003B68D21AFB689B699A4202D301237B6180
:105980001BE0104B1A68FB6804331946104604F0FC
:10599000F1FA12E07A683B689A4206D2BA683B682C
:1059A0009A4202D301237B6107E0074B1A68FB6828
:1059B00004331946104604F0DDFA7B69184618379F
:1059C000BD4680BD0C2A0020082A002080B58AB080
:1059D00000AF3B1D00221A605A609A60DA60C7E08F
:1059E0007B68002B19DA3B1D04337B627B6A002B3A
:1059F0000BD14FF0200383F31188BFF36F8FBFF3F8
:105A00004F8FBB6100BF00BFFDE77B6A1B687A6AEE
:105A100050687A6A9268114698477B68002BC0F2FA
:105A2000A780FB683B623B6A5B69002B04D03B6A42
:105A30000433184604F0D7FA3B461846FFF764FFD4
:105A4000F8617B68013B082B00F28F8001A252F8BD
:105A500023F000BF795A0060795A0060E15A006073
:105A6000F55A0060415B0060795A0060795A006025
:105A7000E15A0060F55A00603B6A93F8283043F021
:105A80000103DAB23B6A83F82820BA683B6A9B6953
:105A9000D118BB68FA69386AFFF756FF0346002B36
:105AA00065D03B6A93F8283003F00403002B09D03B
:105AB000BA683B6A9B691344FA691946386A04F06C
:105AC00033FE08E03B6A93F8283023F00103DAB292
:105AD0003B6A83F828203B6A1B6A386A984746E08D
:105AE0003B6A93F8283023F00103DAB23B6A83F86B
:105AF00028203DE03B6A93F8283043F00103DAB2F6
:105B00003B6A83F82820BA683B6A9A613B6A9B69C2
:105B1000002B0BD14FF0200383F31188BFF36F8F5D
:105B2000BFF34F8F7B6100BF00BFFDE73B6A9A69FF
:105B3000FB69D118FB69FA69386AFFF705FF17E0BE
:105B40003B6A93F8283003F00203002B03D1386A34
:105B5000FDF798FB0CE03B6A93F8283023F0010333
:105B6000DAB23B6A83F8282002E000BF00E000BF01
:105B7000074B1B68391D00221846FEF7B9F803468B
:105B8000002B7FF42DAF00BF00BF2837BD4680BD7E
:105B9000102A002080B582B000AF09E00E4B1B68D0
:105BA000DB681B683B604FF0FF313868FFF70AFE87
:105BB000094B1B681B68002BF0D1074B1B687B60EF
:105BC000064B1B68044A1360044A7B68136000BFDD
:105BD0000837BD4680BD00BF082A00200C2A0020DF
:105BE00080B500AFFDF700FE124B1B68002B1DD1E6
:105BF000114804F06EF9114804F06BF9104B0E4A8D
:105C00001A60104B0D4A1A60002210210A2004F07D
:105C100014FA0346074A1360064B1B68002B05D095
:105C2000044B1B6808491846FEF744FAFDF70EFEC0
:105C300000BF80BD102A0020E0290020F4290020A8
:105C4000082A00200C2A002024BD006080B582B004
:105C500000AF0346FB71FB7983F00103DBB2002B3D
:105C600006D1154B154A4FF481711548FCF7C4FB5A
:105C7000144B4FF08042C3F8582100BF114BD3F8AA
:105C8000703203F48033002BF8D00E4B4FF4803287
:105C9000C3F8542100BF0B4BD3F8503103F4004339
:105CA000002BF8D0074B4FF48032C3F8582100BFC7
:105CB0000837BD4680BD00BF2CBD0060C0C000607D
:105CC0003CBD006000800D4080B483B000AF03464F
:105CD000FB71FB79002B04D1074B1022C3F874220F
:105CE00003E0054B1022C3F8782200BF0C37BD46F5
:105CF0005DF8047B704700BF00800D4080B400AFAA
:105D0000064BD3F87032054A43F00103C2F87032F3
:105D100000BFBD465DF8047B704700BF00800D40AA
:105D200080B483B000AF7860224B1B6B23F4E03269
:105D30007B681B7B9B039BB213431E4A43F4803357
:105D400013631C4B1A6B1C4B13407A68127802F0D9
:105D500001021343174A43F4005313637B685B68E3
:105D6000144A23F0404313657B689B68114A23F073
:105D7000404313667B685B8AC3F30E027B681B7C1F
:105D8000DB039BB21A437B68DB891B04094913437D
:105D90000B6400BF074B1B6B002BFBDA054B1B6B27
:105DA000044A23F48033136300BF0C37BD465DF80B
:105DB000047B704700800D40FECFFFFF80B400AF32
:105DC000044B4FF480521A6700BFBD465DF8047B58
:105DD000704700BF00800D4080B485B000AF786090
:105DE0000023FB601A4BD3F8E03023F4E0327B68E9
:105DF0001B799B039BB21343154A43F48033C2F8CB
:105E0000E0307B685B78002B03D0FB6843F48003B1
:105E1000FB600F4BD3F8E03023F480520C49FB6851
:105E20001343C1F8E03000BF094BD3F8E030002B3A
:105E3000FADA074BD3F8E030054A23F48033C2F88E
:105E4000E03000BF1437BD465DF8047B704700BFEB
:105E500000800D4080B485B000AF03460A46FB7158
:105E60001346BB71FB79FB60124BD3F80021FB6832
:105E7000DB00BF2101FA03F3DB431340BB60FB6887
:105E8000DB0080229A400B49BB681343C1F8003104
:105E9000BB7903F03F02FB68DB009A400549BB6811
:105EA0001343C1F8003100BF1437BD465DF8047BD1
:105EB000704700BF00800D4080B586B000AF03463C
:105EC0000A46FB8013467B71B7F906301B0A7B61DB
:105ED000FB8803F01F033B617B69062B06D90E4B41
:105EE0000E4A40F23D410E48FCF786FA7B699A0063
:105EF0000C4B1344FB6003223B6902FA03F17A79ED
:105F00003B6902FA03F31A46F86804F041FC00BF4B
:105F10001837BD4680BD00BF48BD0060ECC00060C2
:105F200058BD006068C00F4080B584B000AF786095
:105F30000023FB6006E00D4A7B68934206D0FB68B5
:105F40000133FB60FB68002BF5D000E000BFFB686D
:105F5000002B05D0064B074A3B210748FCF74CFABB
:105F6000FB6818461037BD4680BD00BF00C00E401C
:105F700064BD0060D8C000608CBD006080B483B098
:105F800000AF0346FB7197F90730002B0BDBFB7961
:105F900003F01F02074997F907305B09012000FA57
:105FA00002F241F8232000BF0C37BD465DF8047BA8
:105FB000704700BF00E100E080B586B000AF034647
:105FC0000A46FB8013467B71B7F906301B0A7B61DA
:105FD000FB8803F01F033B617B69062B06D90E4B40
:105FE0000E4A40F23D410E48FCF706FA7B699A00E2
:105FF0000C4B1344FB6003223B6902FA03F17A79EC
:106000003B6902FA03F31A46F86804F008FC00BF83
:106010001837BD4680BD00BF48BD006030C100607C
:1060200058BD006068C00F4080B584B000AF786094
:106030000023FB6006E00D4A7B68934206D0FB68B4
:106040000133FB60FB68002BF5D000E000BFFB686C
:10605000002B05D0064B074A4C210748FCF7CCF92A
:10606000FB6818461037BD4680BD00BF00800E405B
:106070009CBD006010C10060C0BD006080B584B0F0
:1060800000AF786039603B68002B05D1214B224A74
:106090007A212248FCF7B0F97868FFF7C5FF40F293
:1060A0000653184604F0E3FB7B680022DA607B6845
:1060B0004FF0FF325A627B684FF0FF32DA627B6842
:1060C0001B68FB60FB6823F05603FB603B689B7812
:1060D0009B0003F004023B685B781B0103F0100394
:1060E0001A433B681B789B0103F040031A433B684B
:1060F000DB785B0003F002031A43FB68134343F0B1
:106100008003FB607B68FA681A6000BF1037BD46E9
:1061100080BD00BF2CBE006024C10060C0BD006017
:1061200080B582B000AF786039603B680F2B05D92D
:10613000084B094AC6210948FCF75EF93B688033E1
:106140005B017A681344184600F0A2F800BF0837D4
:10615000BD4680BDCCBD006044C10060C0BD0060D4
:1061600080B584B000AFF860B9607A603B60BB680E
:106170000F2B05D9134B144AE6211448FCF73CF9C0
:106180007B68002B05D1124B0F4AE7210F48FCF723
:1061900033F93B6803F01F03002B05D00D4B0A4A6F
:1061A000E8210A48FCF728F9BB6880335B01FA68EC
:1061B00013443A687968184600F0B2F800BF103707
:1061C000BD4680BDCCBD006058C10060C0BD006050
:1061D0002CBE00603CBE006080B584B000AFF860AB
:1061E000B9607A60BB680F2B06D9264B264A40F26D
:1061F00081112648FCF700F97B6803F00103002BAE
:1062000008D0FB685A690121BB6801FA03F31A43FD
:10621000FB685A617B6803F00203002B14D0FA6814
:10622000BB685B011A4441F21C0313441B889BB2F8
:1062300043F0020399B2FA68BB685B011A4441F269
:106240001C0313440A461A807B6803F00403002BE6
:1062500014D0FA68BB685B011A4441F21C03134472
:106260001B889BB243F0040399B2FA68BB685B01D8
:106270001A4441F21C0313440A461A8000BF103727
:10628000BD4680BDCCBD006070C10060C0BD006077
:1062900080B582B000AF78607B68002B06D11C4BC4
:1062A0001C4A40F2BF111C48FCF7A6F87B6803F0BB
:1062B0001F03002B06D0194B164A4FF4E071164805
:1062C000FCF79AF87B6800221A607B6800229A80AB
:1062D0007B680022DA807B6800229A607B6800225B
:1062E000DA607B6800221A617B6800229A827B68F0
:1062F0000022DA827B6800229A617B6808229A83F6
:106300007B680022DA8300BF0837BD4680BD00BF2E
:1063100000BE006090C10060C0BD00600CBE0060A7
:1063200080B584B000AFF860B9607A60FB68002B7C
:1063300006D14B4B4B4A4FF4F7714B48FCF75CF8D6
:10634000FB6803F01F03002B06D0484B454A40F280
:10635000EF114548FCF750F8BB68002B06D1444BC1
:10636000404A4FF4F8714048FCF746F87B6803F068
:106370001F03002B06D03F4B3A4A40F2F1113A4836
:10638000FCF73AF8BB681A68BB681B7A19464FF0ED
:10639000FF338B40DB431340002B06D0364B314A92
:1063A0004FF4F9713048FCF727F8BB685A68BB68AE
:1063B0005B7A19464FF0FF338B40DB431340002BD1
:1063C00006D02E4B274A40F2F3112748FCF714F869
:1063D000BB681A68FB681A60BB685A68FB681A6178
:1063E000BB681B7A1B029BB203F4E0639AB2BB68E2
:1063F0005B7A03F007039BB213439AB2FB68DA801F
:10640000BB68B3F90A309AB2FB689A80BB68B3F9EB
:106410000C309AB2FB689A82BB681A69FB689A6072
:10642000BB685B699AB2FB68DA82BB685B699AB247
:10643000FB68DA837B68002B0DD07A68FB689A6171
:10644000FB689B8B9BB243F010039BB223F00803C5
:106450009AB2FB689A8300BF1037BD4680BD00BF6B
:1064600000BE0060A0C10060C0BD00600CBE006046
:106470002CBE00603CBE006060BE0060A8BE006034
:1064800080B582B000AF786039607B68002B06D1A0
:10649000124B134A40F29F211248FBF7ADFF3B68B5
:1064A00003F00203002B07D07B689B8B9BB243F069
:1064B00002039AB27B689A833B6803F00403002BC3
:1064C00007D07B689B8B9BB243F004039AB27B6836
:1064D0009A8300BF0837BD4680BD00BF00BE006084
:1064E000BCC10060C0BD006080B584B000AF786002
:1064F00039603B680F2B06D9214B224A40F2DD213F
:106500002148FBF779FF0023FB607A683B685B0159
:106510001A4441F21C0313441B889BB203F080030E
:106520009BB2002B02D00023FB6024E07A683B681A
:106530005B011A4441F2160313441B889BB21BB241
:10654000002B0CDA7A683B685B011A4441F21603AF
:1065500013441B889BB2C3F30803FB600BE07A680B
:106560003B685B011A4441F2160313441B889BB23B
:10657000C3F30E03FB60FB6818461037BD4680BDB1
:10658000CCBD0060D8C10060C0BD006080B582B0E5
:1065900000AF78600E48FFF747FD0346DAB20D4BB7
:1065A0001A700C4B1B781A467B68934206D20A4B32
:1065B0000A4A40F23A310A48FBF71EFF054B1B78A6
:1065C0001A467B689B1A18460837BD4680BD00BF37
:1065D00000800E400F2B0020F0BE0060F8C100606C
:1065E000C0BD006080B588B000AFF860B9607A6067
:1065F000FB68002B06D1334B334A4FF453713348B9
:10660000FBF7FAFE7B680F2B06D9314B2E4A40F27E
:106610004D312E48FBF7F0FE18220021F86802F0F9
:106620004FFCFB68BA689A607B68DAB2FB681A7440
:10663000B868FFF7F9FCF861F869FFF7A7FF0346B0
:106640001B017A681344BB612249BB69FA6841F8AF
:106650002320214AFB691B011A447B68134493F9E8
:106660000030184604F012F9FB689A68FB681B7C3E
:1066700080335B0113447B617B6900221A607B6974
:1066800000229A807B690022DA807B6900229A606E
:106690007B690022DA607B6900221A617B69002233
:1066A0009A827B690022DA827B6900229A617B6987
:1066B00000229A837B690022DA8300BF2037BD461F
:1066C00080BD00BF10BF006010C20060C0BD006090
:1066D000CCBD0060242A002000C1006080B584B0D9
:1066E00000AFF860B9607A60FB68002B06D1084BF8
:1066F000084A40F2A2310848FBF77EFEFB68BA6800
:106700001A60FB687A685A6000BF1037BD4680BDCA
:1067100010BF006024C20060C0BD006080B586B0BC
:1067200000AF78607B68002B06D1294B294A40F2E4
:1067300004512948FBF760FE00237B617B68DB681E
:10674000002B08D17B681A7C7B689B6802F00F02E3
:10675000D2B2DA7638E07B689A687B681B7C80333B
:106760005B0113443B617B685B7D63F07F03DAB2BE
:106770007B685A753B699B69002B25D004F09FF814
:10678000F8607B689B68DB687A68127CD34003F012
:106790000103002B15D13B699B8B9BB27B617B690D
:1067A00003F08003002B04D07B6903F01003002B5F
:1067B00007D07B681A7C7B689B6802F00F02D2B21C
:1067C000DA76F86804F08CF800BF1837BD4680BD53
:1067D00010BF006038C20060C0BD006090B589B0D5
:1067E00000AF78607B68002B06D16D4B6D4A4FF48B
:1067F000AF616D48FBF700FE7B689B687A68127C8E
:10680000DA777B689A687B681B7C5B011A4441F2EB
:106810001C0313441B889BB203F08003002B14BF9E
:1068200001230023BB767B68DB68002B0DD17B68DE
:106830001B68002B00F0AF807B681C687B68596880
:10684000BA7E00237868A047A5E07B689A687B68D9
:106850001B7C5B011A4441F2180313441B687B61E3
:106860007B689A687B681B7C5B011A4441F21C03BD
:1068700013441B889BB203F01003002B14BF0123A9
:106880000023FB747B68DB681A467B699B1A7B617B
:106890007B695B09FB60BB7E002B02D0FB68FB764B
:1068A0000EE0FB68002B04D0FB68DBB2013BDBB2DF
:1068B00005E07B681B7D5BB2DBB2013BDBB2FB76A4
:1068C0007B685B7C5AB297F91B309A4219D17B687E
:1068D000DB7CFB727B681B7DBB7297F90B2097F901
:1068E0000A309A4205D0FB7C83F00103DBB2002B17
:1068F00004D07B68DB7C5BB2FB611AE00023FB61A8
:1069000017E0FB7E7A68527C52B29B1AFB61FB69EE
:10691000002B06DA7B681B7D5BB21A46FB691344C9
:10692000FB61BB7E002B04D07B689B687A68127C7D
:106930001A7797F91B207B685A747B68DB7C5BB203
:10694000DAB2FB69DBB2D31ADBB25AB27B68DA7413
:106950007B681B68002B07D07B681C687B685968C4
:10696000FB69BA7E7868A047BB7E002B13D07B689A
:106970009A687B681B7C5B011A4441F21C03134438
:106980001B889BB203F01003002B04D07B689B682C
:106990007A68127C1A7700BF2437BD4690BD00BFCD
:1069A00010BF00604CC20060C0BD006080B500AF89
:1069B000044B1B681846FFF711FFBFF34F8F00BF52
:1069C00000BF80BD242A002080B500AF044B5B6867
:1069D0001846FFF703FFBFF34F8F00BF00BF80BD16
:1069E000242A002080B500AF044B9B681846FFF7AF
:1069F000F5FEBFF34F8F00BF00BF80BD242A0020EB
:106A000080B500AF044BDB681846FFF7E7FEBFF325
:106A10004F8F00BF00BF80BD242A002080B500AF8B
:106A2000044B1B691846FFF7D9FEBFF34F8F00BF19
:106A300000BF80BD242A002080B500AF044B5B69F5
:106A40001846FFF7CBFEBFF34F8F00BF00BF80BDDE
:106A5000242A002080B500AF044B9B691846FFF73D
:106A6000BDFEBFF34F8F00BF00BF80BD242A0020B2
:106A700080B500AF044BDB691846FFF7AFFEBFF3EC
:106A80004F8F00BF00BF80BD242A002080B500AF1B
:106A9000044B1B6A1846FFF7A1FEBFF34F8F00BFE0
:106AA00000BF80BD242A002080B500AF044B5B6A84
:106AB0001846FFF793FEBFF34F8F00BF00BF80BDA6
:106AC000242A002080B500AF044B9B6A1846FFF7CC
:106AD00085FEBFF34F8F00BF00BF80BD242A00207A
:106AE00080B500AF044BDB6A1846FFF777FEBFF3B3
:106AF0004F8F00BF00BF80BD242A002080B500AFAB
:106B0000044B1B6B1846FFF769FEBFF34F8F00BFA6
:106B100000BF80BD242A002080B500AF044B5B6B12
:106B20001846FFF75BFEBFF34F8F00BF00BF80BD6D
:106B3000242A002080B500AF044B9B6B1846FFF75A
:106B40004DFEBFF34F8F00BF00BF80BD242A002041
:106B500080B500AF044BDB6B1846FFF73FFEBFF379
:106B60004F8F00BF00BF80BD242A002080B582B0B7
:106B700000AF0023FB7116E0FB79104A52F8233076
:106B8000002B0DD0FB790E4A52F82330FA790D49CB
:106B900051F82200FA79094951F822201146984704
:106BA000FB790133FB71FB79012BE5D9BFF34F8FE3
:106BB00000BF00BF0837BD4680BD00BF642A00206B
:106BC000742A00206C2A002080B586B000AF0346EE
:106BD0000A46FB8013467B71B7F906301B0A7B61BE
:106BE000FB8803F01F033B617B69062B06D90E4B24
:106BF0000E4A40F23D410E48FBF7FEFB7B699A00CE
:106C00000C4B1344FB6003223B6902FA03F17A79CF
:106C10003B6902FA03F31A46F86803F0C2FE00BFAC
:106C20001837BD4680BD00BF48BD0060A0C20060EF
:106C300058BD006068C00F4080B584B000AF786078
:106C40000023FB6009E00E4AFB6852F823307A68A3
:106C50009A4206D0FB680133FB60FB68022BF2D935
:106C600000E000BFFB68022B05D9064B064AE9216C
:106C70000648FBF7C1FBFB6818461037BD4680BDD0
:106C80005CC2006020BF006074C2006044BF00604E
:106C900080B588B000AFF860B9607A603B60FB688F
:106CA000002B05D11E4B1F4AF8211F48FBF7A4FB00
:106CB0000123FB6105E0FB695B00FB61BB6A013BF3
:106CC000BB62BB6A002BF6D1FA68FB69B2FBF3F337
:106CD000164AA2FB03239B09154AB2FBF3F37B611F
:106CE000BA6813469B0013445B001A467B69B2FBEB
:106CF000F3F305330F4AA2FB0323DB08BB61BA6938
:106D00007B689A4201D27B68BB61BA693B689A4250
:106D100001D93B68BB61BB6918462037BD4680BDC1
:106D200050BF006088C2006044BF0060D34D621055
:106D300040420F00CDCCCCCC80B582B000AF7860A3
:106D40001C220021786802F0BBF87B6801221A70CF
:106D50007B6800229A707B6801225A707B6800224F
:106D6000DA707B6800221A717B680D4A9A607B6832
:106D70000022DA607B6800221A617B6800221A75A3
:106D80007B6800225A757B6800229A757B68002216
:106D9000DA757B6801221A7600BF0837BD4680BDD0
:106DA000A086010080B58CB002AFF860B9607A604F
:106DB000F868FFF741FF38626C4A3B6A32F91330DA
:106DC000184603F016FEF86803F031FEBB689B78A6
:106DD000DB0003F00802BB685B7883F00103DBB2E1
:106DE0009B0003F004031A43FB681A61FB681B6AEB
:106DF000FB61FB6923F00703FB61BB689B7D1A46BF
:106E0000BB681B7E5B0003F002031A43BB68DB7D9B
:106E10009B0003F004031343FA691343FB61FB680F
:106E2000FA691A62FB685B6AFB61FA69504B1340AE
:106E3000FB61BB681B791B0603F0E063FA6913432F
:106E4000FB61BB68DB785B0203F40073FA691343F0
:106E5000FB61FB68FA695A6200220021F86803F0BE
:106E600024FEFB689B6A7B62BB681B7D002B15D0F0
:106E7000BB681B7D1946002300930F23012278680D
:106E8000FFF706FFB8617B6A23F070637B62BB6922
:106E90001B0603F070637A6A13437B62BB685B7DF9
:106EA000002B15D0BB685B7D1946002300930F2390
:106EB00001227868FFF7ECFEB8617B6A23F4702347
:106EC0007B62BB691B0403F470237A6A13437B6201
:106ED000FB687A6A9A62BB689B681A467968F868A8
:106EE00000F066F8FB685B6A03F007037B61BB6830
:106EF000DB68002B14D0BB68D9687B69009340F62F
:106F0000FF7301227868FFF7C3FEB861FB689A6AD5
:106F1000184B1340BA69C2F30B021A43FB689A621A
:106F2000BB681B69002B16D0BB681B69190A7B69FB
:106F3000009340F6FF7301227868FFF7A9FEB8615D
:106F4000FB68DB6A0C4A1A40BB6919020B4B0B4009
:106F50001A43FB68DA62BB681B781946F86803F0CD
:106F600076FD00BF2837BD4680BD00BF6CC2006003
:106F7000FFFDFFF800F0FFFFFF00F0FF00FF0F0034
:106F800080B584B000AF7860786803F050FD786811
:106F9000FFF752FEF860054AFB6832F913301846D5
:106FA00003F036FD00BF1037BD4680BD6CC20060E7
:106FB00080B58EB000AFF860B9607A60FB689B6AFC
:106FC0001B0CDBB203F00F0387F82930012387F88D
:106FD0003730012387F83630002387F83530002317
:106FE00087F83430002387F8333000237B624FF07A
:106FF000FF33FB6200233B62FB681B6903F0010364
:10700000002B14BF01230023FB770021F86803F055
:107010001EFD002387F835306CE0BA6813469B00EC
:1070200013445B001A4697F83730B2FBF3F27B68E3
:10703000B2FBF3F305338D4AA2FB0323DB08DAB27C
:1070400097F82930991C97F83730B1FBF3F3DBB28E
:10705000D31ADBB2023BBB77BA7F97F82930991C71
:1070600097F83730B1FBF3F3C3F178039A4205D9AF
:1070700097F837305B0087F8373036E097F83730CD
:10708000BA68B2FBF3F2B97F97F82930981C97F8E9
:107090003730B0FBF3F30B440233B2FBF3F3BB61C5
:1070A0007A68BB699A4203D97A68BB69D31A02E04D
:1070B000BA697B68D31A7B627A6AFB6A9A420FD2FA
:1070C00097F8353087F8343097F8373087F836300E
:1070D000BB7F87F833307B6AFB627B6A002B0ED064
:1070E00097F837305B0087F8373097F83530013341
:1070F00087F8353097F83530072B8ED900E000BF80
:1071000097F8332097F82930991C97F83630B1FB5F
:10711000F3F3D31A5B0887F82B3004E097F82B3091
:10712000013B87F82B3097F82B2097F83310BB687A
:10713000342003FB00F07B68B0FBF3F097F83630A7
:10714000B0FBF3F34A48A0FB03035B09CB1A0133FE
:107150009A42E3D8BA687B68B2FBF3F297F836300C
:10716000B2FBF3F35B08DBB2013BFB75BA687B68EB
:10717000B2FBF3F297F83630B2FBF3F39B08DBB2C5
:10718000013BBB75BA687B68B2FBF3F3374AA2FBDD
:1071900003231A0997F8363002339A4233D9FB6831
:1071A0009B6A1B0EDBB203F00F0387F82A3097F8B7
:1071B0002A20B9687B68B1FBF3F32C49A1FB0313C8
:1071C000190997F83630CB1A023B9A420FD2BA68A7
:1071D0007B68B2FBF3F3254AA2FB03231B09DAB257
:1071E00097F83630D31ADBB2023B87F82A30FB68B7
:1071F0009B6A23F0706297F82A301B0603F07063D5
:107200001A43FB689A6297F82B301B0203F47C52F6
:1072100097F8331097F82B30CB1ADBB203F03F030B
:107220001A43FB7D1B0403F47C131A43BB7D1B062E
:1072300003F07C5313433B62FB683A6A9A64FB6831
:107240005B6A23F0070297F8343003F007031A4310
:10725000FB685A62FB7F002B03D00121F86803F022
:10726000F6FB00BF3837BD4680BD00BFCDCCCCCCCF
:107270001F85EB5180B582B000AF786039607B68C4
:107280001B6903F00103002B0CD0144B1B68002B6F
:1072900008D0124B1B6812493A6851F82220114657
:1072A000786898477B68D3F8103103F00103002B0E
:1072B0000CD00C4B1B68002B08D00A4B1B680A49EA
:1072C0003A6851F82220114678689847BFF34F8FEB
:1072D00000BF00BF0837BD4680BD00BF7C2A00202C
:1072E000802A00208C2A0020902A002080B500AF40
:1072F00001210248FFF7BEFF00BF80BD00401A40D9
:1073000080B500AF02210248FFF7B4FF00BF80BD87
:1073100000801A4080B582B000AF786039603B6869
:107320000F2B05D9094B0A4A4D210A48FBF764F88F
:107330007B683A6853F8223043F000417B683A6832
:1073400043F8221000BF0837BD4680BD64BF00600F
:1073500024C300609CBF006080B582B000AF78603D
:1073600039603B680F2B05D9094B0A4A5D210A4851
:10737000FBF742F87B683A6853F8223023F000416B
:107380007B683A6843F8221000BF0837BD4680BDCD
:1073900064BF00603CC300609CBF006080B584B0E7
:1073A00000AFF860B9607A60BB680F2B05D90C4B51
:1073B0000C4A70210C48FBF71FF8FB68BA6853F8B9
:1073C000223023F07F027B6803F07F0342EA03014F
:1073D000FB68BA6843F8221000BF1037BD4680BD75
:1073E00064BF006010C300609CBF006080B483B0C5
:1073F00000AF084B1B687B600023BA8862F30F0361
:10740000FA8862F31F4318460C37BD465DF8047BCB
:10741000704700BFB4C2006090B585B002AF78601D
:1074200039603B681B7D03F00103002B54D13B689E
:107430005B6898693B685B6859683B685B681B8957
:107440001A46FFF7ABFF3B685B689A693B685B686D
:107450005B6819461046FFF75DFF3B685B68D869BB
:107460003B685B6819693B685B689B8A1A46FFF753
:1074700095FF3B685B68DA693B685B681B69194686
:107480001046FFF747FF3B68D8683B685B681968A0
:107490003B685B685B681A46FFF7A4F83B681869AD
:1074A0003B685B68D9683B685B681B691A46FFF7F5
:1074B00099F83B681B6818683B6899683B681A69CB
:1074C0003B68DC687B680193064B0093234600F021
:1074D00027F93B6801221A75002318460C37BD4670
:1074E00090BD00BFD3AB006090B587B000AFF8602F
:1074F000B9607A6000233B61FB68013B032B63D8D2
:1075000001A252F823F000BF1975006021750060D8
:107510007D750060857500606FF003033B6158E086
:10752000BB68032B0FD0BB68032B0FD8BB68012BA4
:1075300003D0BB68022B03D008E0284B7B6109E035
:10754000274B7B6106E0274B7B6103E06FF0030371
:107550003B6100BF3B6913F1040F39D07B681B68A6
:107560001C687B681B685B68984703467A69194604
:107570002046FFF71DFD00233B6129E06FF0030368
:107580003B6126E07B681B681B68DB6903F0030333
:10759000032B16D17B689B6893F82230002B10D107
:1075A0007B681B681A687B689B681946104600F068
:1075B00039FB7B689B680022DA627B689B6800224B
:1075C0001A6300233B6104E06FF003033B6100E0BA
:1075D00000BF3B6918461C37BD4690BDA086010020
:1075E000801A060040420F0080B582B000AF78607C
:1075F00004497868FFF710FF034618460837BD4670
:1076000080BD00BF0400002080B500AF024803F039
:10761000F8FA0346184680BD0400002080B582B009
:1076200000AF0346FB71FB790449184603F08AFB5F
:10763000034618460837BD4680BD00BF0400002041
:1076400080B586B002AFF860B9607A60FB70FB78F5
:10765000054A00927A68B968F86803F0E0FA0346D0
:1076600018461037BD4680BD0400002080B586B0A6
:1076700002AFF860B9607A60FB70FB78054A00924F
:107680007A68B968F86803F00AFB034618461037B1
:10769000BD4680BD0400002080B500AF024803F065
:1076A0003EFB0346184680BD0400002080B582B032
:1076B00000AF78603960054A39687868FFF714FFD1
:1076C000034618460837BD4680BD00BF04000020B1
:1076D00080B500AF024803F0ABFB0346184680BDFF
:1076E0000400002080B483B000AF0346FB7197F91B
:1076F0000730002B0BDBFB7903F01F02074997F9DA
:1077000007305B09012000FA02F241F8232000BF94
:107710000C37BD465DF8047B704700BF00E100E018
:1077200080B586B000AFF860B9607A603B60BB6836
:10773000002B05D1254B264A7B212648FAF75CFE13
:107740007B68002B05D1244B214A7C212148FAF784
:1077500053FE3B68002B05D1204B1D4A7D211D485F
:10776000FAF74AFEF868FFF767FA7861A422002169
:10777000B86801F0A5FBBB68FA681A60BB683A6A92
:107780005A63BB687A6A9A63BB687A68DA63BB68D3
:107790007A681A6412497B69BA6841F82320114B50
:1077A000114A1A60114A7B69134493F90030184654
:1077B00003F077FBBB68DB6BBA680D491846FEF730
:1077C0008DFF00BF1837BD4680BD00BF10BF0060F1
:1077D00054C30060ACBF0060C0BF0060D4BF006095
:1077E000802A00207C2A0020917C006068C2006012
:1077F00089B10060B0B592B000AFF860B9607A604E
:10780000BB68002B05D19A4B9A4AF7219A48FAF7A0
